{
  "address": "0x6f150bc108E6420dAE7897d05B825d05d9034216",
  "contractName": "DecentralizedBusinesses",
  "abi": [
    {
      "inputs": [
        {
          "internalType": "uint256",
          "name": "quoteSeller",
          "type": "uint256"
        }
      ],
      "stateMutability": "nonpayable",
      "type": "constructor"
    },
    {
      "anonymous": false,
      "inputs": [
        {
          "indexed": false,
          "internalType": "address",
          "name": "validator",
          "type": "address"
        },
        {
          "indexed": false,
          "internalType": "address",
          "name": "account",
          "type": "address"
        },
        {
          "indexed": false,
          "internalType": "bool",
          "name": "state",
          "type": "bool"
        }
      ],
      "name": "LogChangeBlackList",
      "type": "event"
    },
    {
      "anonymous": false,
      "inputs": [
        {
          "indexed": false,
          "internalType": "uint256",
          "name": "newQuote",
          "type": "uint256"
        },
        {
          "indexed": false,
          "internalType": "address",
          "name": "account",
          "type": "address"
        }
      ],
      "name": "LogChangeQuote",
      "type": "event"
    },
    {
      "anonymous": false,
      "inputs": [
        {
          "indexed": false,
          "internalType": "uint256",
          "name": "id",
          "type": "uint256"
        },
        {
          "indexed": false,
          "internalType": "enum DecentralizedBusinesses.State",
          "name": "state",
          "type": "uint8"
        },
        {
          "indexed": false,
          "internalType": "address",
          "name": "seller",
          "type": "address"
        }
      ],
      "name": "LogProduct",
      "type": "event"
    },
    {
      "anonymous": false,
      "inputs": [
        {
          "indexed": false,
          "internalType": "address",
          "name": "seller",
          "type": "address"
        },
        {
          "indexed": false,
          "internalType": "bool",
          "name": "status",
          "type": "bool"
        }
      ],
      "name": "LogRegisteredSeller",
      "type": "event"
    },
    {
      "anonymous": false,
      "inputs": [
        {
          "indexed": true,
          "internalType": "bytes32",
          "name": "role",
          "type": "bytes32"
        },
        {
          "indexed": true,
          "internalType": "bytes32",
          "name": "previousAdminRole",
          "type": "bytes32"
        },
        {
          "indexed": true,
          "internalType": "bytes32",
          "name": "newAdminRole",
          "type": "bytes32"
        }
      ],
      "name": "RoleAdminChanged",
      "type": "event"
    },
    {
      "anonymous": false,
      "inputs": [
        {
          "indexed": true,
          "internalType": "bytes32",
          "name": "role",
          "type": "bytes32"
        },
        {
          "indexed": true,
          "internalType": "address",
          "name": "account",
          "type": "address"
        },
        {
          "indexed": true,
          "internalType": "address",
          "name": "sender",
          "type": "address"
        }
      ],
      "name": "RoleGranted",
      "type": "event"
    },
    {
      "anonymous": false,
      "inputs": [
        {
          "indexed": true,
          "internalType": "bytes32",
          "name": "role",
          "type": "bytes32"
        },
        {
          "indexed": true,
          "internalType": "address",
          "name": "account",
          "type": "address"
        },
        {
          "indexed": true,
          "internalType": "address",
          "name": "sender",
          "type": "address"
        }
      ],
      "name": "RoleRevoked",
      "type": "event"
    },
    {
      "inputs": [],
      "name": "DEFAULT_ADMIN_ROLE",
      "outputs": [
        {
          "internalType": "bytes32",
          "name": "",
          "type": "bytes32"
        }
      ],
      "stateMutability": "view",
      "type": "function",
      "constant": true
    },
    {
      "inputs": [],
      "name": "SELLER_ROLE",
      "outputs": [
        {
          "internalType": "bytes32",
          "name": "",
          "type": "bytes32"
        }
      ],
      "stateMutability": "view",
      "type": "function",
      "constant": true
    },
    {
      "inputs": [],
      "name": "VALIDATOR_ROLE",
      "outputs": [
        {
          "internalType": "bytes32",
          "name": "",
          "type": "bytes32"
        }
      ],
      "stateMutability": "view",
      "type": "function",
      "constant": true
    },
    {
      "inputs": [
        {
          "internalType": "bytes32",
          "name": "role",
          "type": "bytes32"
        }
      ],
      "name": "getRoleAdmin",
      "outputs": [
        {
          "internalType": "bytes32",
          "name": "",
          "type": "bytes32"
        }
      ],
      "stateMutability": "view",
      "type": "function",
      "constant": true
    },
    {
      "inputs": [
        {
          "internalType": "bytes32",
          "name": "role",
          "type": "bytes32"
        },
        {
          "internalType": "address",
          "name": "account",
          "type": "address"
        }
      ],
      "name": "grantRole",
      "outputs": [],
      "stateMutability": "nonpayable",
      "type": "function"
    },
    {
      "inputs": [
        {
          "internalType": "bytes32",
          "name": "role",
          "type": "bytes32"
        },
        {
          "internalType": "address",
          "name": "account",
          "type": "address"
        }
      ],
      "name": "hasRole",
      "outputs": [
        {
          "internalType": "bool",
          "name": "",
          "type": "bool"
        }
      ],
      "stateMutability": "view",
      "type": "function",
      "constant": true
    },
    {
      "inputs": [],
      "name": "productCount",
      "outputs": [
        {
          "internalType": "uint256",
          "name": "",
          "type": "uint256"
        }
      ],
      "stateMutability": "view",
      "type": "function",
      "constant": true
    },
    {
      "inputs": [
        {
          "internalType": "uint256",
          "name": "",
          "type": "uint256"
        }
      ],
      "name": "products",
      "outputs": [
        {
          "internalType": "uint256",
          "name": "id",
          "type": "uint256"
        },
        {
          "internalType": "string",
          "name": "name",
          "type": "string"
        },
        {
          "internalType": "string",
          "name": "description",
          "type": "string"
        },
        {
          "internalType": "uint256",
          "name": "price",
          "type": "uint256"
        },
        {
          "internalType": "enum DecentralizedBusinesses.State",
          "name": "state",
          "type": "uint8"
        },
        {
          "internalType": "address",
          "name": "seller",
          "type": "address"
        },
        {
          "internalType": "address",
          "name": "buyer",
          "type": "address"
        }
      ],
      "stateMutability": "view",
      "type": "function",
      "constant": true
    },
    {
      "inputs": [],
      "name": "quoteForSeller",
      "outputs": [
        {
          "internalType": "uint256",
          "name": "",
          "type": "uint256"
        }
      ],
      "stateMutability": "view",
      "type": "function",
      "constant": true
    },
    {
      "inputs": [
        {
          "internalType": "bytes32",
          "name": "role",
          "type": "bytes32"
        },
        {
          "internalType": "address",
          "name": "account",
          "type": "address"
        }
      ],
      "name": "renounceRole",
      "outputs": [],
      "stateMutability": "nonpayable",
      "type": "function"
    },
    {
      "inputs": [
        {
          "internalType": "bytes32",
          "name": "role",
          "type": "bytes32"
        },
        {
          "internalType": "address",
          "name": "account",
          "type": "address"
        }
      ],
      "name": "revokeRole",
      "outputs": [],
      "stateMutability": "nonpayable",
      "type": "function"
    },
    {
      "inputs": [
        {
          "internalType": "bytes4",
          "name": "interfaceId",
          "type": "bytes4"
        }
      ],
      "name": "supportsInterface",
      "outputs": [
        {
          "internalType": "bool",
          "name": "",
          "type": "bool"
        }
      ],
      "stateMutability": "view",
      "type": "function",
      "constant": true
    },
    {
      "stateMutability": "payable",
      "type": "receive",
      "payable": true
    },
    {
      "inputs": [],
      "name": "balance",
      "outputs": [
        {
          "internalType": "uint256",
          "name": "",
          "type": "uint256"
        }
      ],
      "stateMutability": "view",
      "type": "function",
      "constant": true
    },
    {
      "inputs": [
        {
          "internalType": "address",
          "name": "account",
          "type": "address"
        }
      ],
      "name": "balanceOf",
      "outputs": [
        {
          "internalType": "uint256",
          "name": "",
          "type": "uint256"
        }
      ],
      "stateMutability": "view",
      "type": "function",
      "constant": true
    },
    {
      "inputs": [
        {
          "internalType": "uint256",
          "name": "newQuote",
          "type": "uint256"
        }
      ],
      "name": "setQuote",
      "outputs": [
        {
          "internalType": "bool",
          "name": "",
          "type": "bool"
        }
      ],
      "stateMutability": "nonpayable",
      "type": "function"
    },
    {
      "inputs": [],
      "name": "registerSeller",
      "outputs": [],
      "stateMutability": "payable",
      "type": "function",
      "payable": true
    },
    {
      "inputs": [],
      "name": "unregisterSeller",
      "outputs": [],
      "stateMutability": "nonpayable",
      "type": "function"
    },
    {
      "inputs": [
        {
          "internalType": "address",
          "name": "account",
          "type": "address"
        },
        {
          "internalType": "bool",
          "name": "state",
          "type": "bool"
        }
      ],
      "name": "changeBlackList",
      "outputs": [],
      "stateMutability": "nonpayable",
      "type": "function"
    },
    {
      "inputs": [
        {
          "internalType": "string",
          "name": "name",
          "type": "string"
        },
        {
          "internalType": "string",
          "name": "description",
          "type": "string"
        },
        {
          "internalType": "uint256",
          "name": "price",
          "type": "uint256"
        }
      ],
      "name": "addProduct",
      "outputs": [],
      "stateMutability": "nonpayable",
      "type": "function"
    },
    {
      "inputs": [
        {
          "internalType": "uint256",
          "name": "id",
          "type": "uint256"
        }
      ],
      "name": "buyProduct",
      "outputs": [],
      "stateMutability": "payable",
      "type": "function",
      "payable": true
    },
    {
      "inputs": [
        {
          "internalType": "uint256",
          "name": "_id",
          "type": "uint256"
        }
      ],
      "name": "_buyProduct",
      "outputs": [
        {
          "internalType": "bool",
          "name": "",
          "type": "bool"
        }
      ],
      "stateMutability": "payable",
      "type": "function",
      "payable": true
    },
    {
      "inputs": [
        {
          "internalType": "uint256",
          "name": "id",
          "type": "uint256"
        },
        {
          "internalType": "enum DecentralizedBusinesses.Stars",
          "name": "rating",
          "type": "uint8"
        }
      ],
      "name": "qualify",
      "outputs": [],
      "stateMutability": "nonpayable",
      "type": "function"
    }
  ],
  "bytecode": "0x60806040523480156200001157600080fd5b506040516200340e3803806200340e833981810160405281019062000037919062000299565b600360008154809291906200004c90620002fa565b9190505550620000756000801b62000069620000c960201b60201c565b620000d160201b60201c565b6012600260006101000a81548160ff021916908360ff160217905550620000a1620000e760201b60201c565b600a620000af9190620004a9565b81620000bc9190620004fa565b600181905550506200055b565b600033905090565b620000e38282620000fe60201b60201c565b5050565b6000600260009054906101000a900460ff16905090565b620001108282620001ef60201b60201c565b620001eb57600160008084815260200190815260200160002060000160008373ffffffffffffffffffffffffffffffffffffffff1673ffffffffffffffffffffffffffffffffffffffff16815260200190815260200160002060006101000a81548160ff02191690831515021790555062000190620000c960201b60201c565b73ffffffffffffffffffffffffffffffffffffffff168173ffffffffffffffffffffffffffffffffffffffff16837f2f8788117e7eff1d82e926ec794901d17c78024a50270940304540a733656f0d60405160405180910390a45b5050565b600080600084815260200190815260200160002060000160008373ffffffffffffffffffffffffffffffffffffffff1673ffffffffffffffffffffffffffffffffffffffff16815260200190815260200160002060009054906101000a900460ff16905092915050565b600080fd5b6000819050919050565b62000273816200025e565b81146200027f57600080fd5b50565b600081519050620002938162000268565b92915050565b600060208284031215620002b257620002b162000259565b5b6000620002c28482850162000282565b91505092915050565b7f4e487b7100000000000000000000000000000000000000000000000000000000600052601160045260246000fd5b600062000307826200025e565b91507fffffffffffffffffffffffffffffffffffffffffffffffffffffffffffffffff8214156200033d576200033c620002cb565b5b600182019050919050565b60008160011c9050919050565b6000808291508390505b6001851115620003a7578086048111156200037f576200037e620002cb565b5b60018516156200038f5780820291505b80810290506200039f8562000348565b94506200035f565b94509492505050565b600082620003c2576001905062000495565b81620003d2576000905062000495565b8160018114620003eb5760028114620003f6576200042c565b600191505062000495565b60ff8411156200040b576200040a620002cb565b5b8360020a915084821115620004255762000424620002cb565b5b5062000495565b5060208310610133831016604e8410600b8410161715620004665782820a90508381111562000460576200045f620002cb565b5b62000495565b62000475848484600162000355565b925090508184048111156200048f576200048e620002cb565b5b81810290505b9392505050565b600060ff82169050919050565b6000620004b6826200025e565b9150620004c3836200049c565b9250620004f27fffffffffffffffffffffffffffffffffffffffffffffffffffffffffffffffff8484620003b0565b905092915050565b600062000507826200025e565b915062000514836200025e565b9250817fffffffffffffffffffffffffffffffffffffffffffffffffffffffffffffffff048311821515161562000550576200054f620002cb565b5b828202905092915050565b612ea3806200056b6000396000f3fe6080604052600436106101395760003560e01c806391d14854116100ab578063bef24d221161006f578063bef24d2214610422578063c49baebe1461044b578063d547741f14610476578063dbe4613d1461049f578063e0f6ef87146104ca578063f28ea1c1146104f557610140565b806391d1485414610336578063a217fddf14610373578063ae6b376b1461039e578063b69ef8a8146103ce578063bb21baf8146103f957610140565b806352c9224c116100fd57806352c9224c1461022857806356c8788a1461023257806370a082311461026f5780637acc0b20146102ac5780637b494c76146102ef5780638642269e1461031a57610140565b806301ffc9a714610145578063248a9ca3146101825780632f2ff15d146101bf57806336568abe146101e857806337f01bed1461021157610140565b3661014057005b600080fd5b34801561015157600080fd5b5061016c60048036038101906101679190611d51565b61051e565b6040516101799190611d99565b60405180910390f35b34801561018e57600080fd5b506101a960048036038101906101a49190611dea565b610598565b6040516101b69190611e26565b60405180910390f35b3480156101cb57600080fd5b506101e660048036038101906101e19190611e9f565b6105b7565b005b3480156101f457600080fd5b5061020f600480360381019061020a9190611e9f565b6105e0565b005b34801561021d57600080fd5b50610226610663565b005b610230610720565b005b34801561023e57600080fd5b5061025960048036038101906102549190611f15565b610951565b6040516102669190611d99565b60405180910390f35b34801561027b57600080fd5b5061029660048036038101906102919190611f42565b610a01565b6040516102a39190611f7e565b60405180910390f35b3480156102b857600080fd5b506102d360048036038101906102ce9190611f15565b610a4a565b6040516102e697969594939291906120b8565b60405180910390f35b3480156102fb57600080fd5b50610304610be9565b6040516103119190611f7e565b60405180910390f35b610334600480360381019061032f9190611f15565b610bef565b005b34801561034257600080fd5b5061035d60048036038101906103589190611e9f565b610cbd565b60405161036a9190611d99565b60405180910390f35b34801561037f57600080fd5b50610388610d27565b6040516103959190611e26565b60405180910390f35b6103b860048036038101906103b39190611f15565b610d2e565b6040516103c59190611d99565b60405180910390f35b3480156103da57600080fd5b506103e3610ecc565b6040516103f09190611f7e565b60405180910390f35b34801561040557600080fd5b50610420600480360381019061041b9190612161565b610ed4565b005b34801561042e57600080fd5b50610449600480360381019061044491906121c6565b610f87565b005b34801561045757600080fd5b50610460611103565b60405161046d9190611e26565b60405180910390f35b34801561048257600080fd5b5061049d60048036038101906104989190611e9f565b611127565b005b3480156104ab57600080fd5b506104b4611150565b6040516104c19190611e26565b60405180910390f35b3480156104d657600080fd5b506104df611174565b6040516104ec9190611f7e565b60405180910390f35b34801561050157600080fd5b5061051c6004803603810190610517919061233b565b61117a565b005b60007f7965db0b000000000000000000000000000000000000000000000000000000007bffffffffffffffffffffffffffffffffffffffffffffffffffffffff1916827bffffffffffffffffffffffffffffffffffffffffffffffffffffffff19161480610591575061059082611249565b5b9050919050565b6000806000838152602001908152602001600020600101549050919050565b6105c082610598565b6105d1816105cc6112b3565b6112bb565b6105db8383611358565b505050565b6105e86112b3565b73ffffffffffffffffffffffffffffffffffffffff168173ffffffffffffffffffffffffffffffffffffffff1614610655576040517f08c379a000000000000000000000000000000000000000000000000000000000815260040161064c90612438565b60405180910390fd5b61065f8282611438565b5050565b7fe27592a68a79c541972a95a186227e8435146610cb2d3eb8f8589c9a507d61b2610695816106906112b3565b6112bb565b61069d611519565b6106dc576040517f08c379a00000000000000000000000000000000000000000000000000000000081526004016106d3906124a4565b60405180910390fd5b7f225a6cefd1a2110d4d185f00c3b929827ae0cfbe563a7ab07b70fadba49d5afd6107056112b3565b60006040516107159291906124c4565b60405180910390a150565b600154341015610765576040517f08c379a000000000000000000000000000000000000000000000000000000000815260040161075c90612539565b60405180910390fd5b6107796000801b6107746112b3565b610cbd565b1580156107b457506107b27fa95257aebefccffaada4758f028bce81ea992693be70592f620c4c9a0d9e715a6107ad6112b3565b610cbd565b155b80156107ee57506107ec7fe27592a68a79c541972a95a186227e8435146610cb2d3eb8f8589c9a507d61b26107e76112b3565b610cbd565b155b61082d576040517f08c379a0000000000000000000000000000000000000000000000000000000008152600401610824906125cb565b60405180910390fd5b600015156004600061083d6112b3565b73ffffffffffffffffffffffffffffffffffffffff1673ffffffffffffffffffffffffffffffffffffffff16815260200190815260200160002060009054906101000a900460ff161515146108c7576040517f08c379a00000000000000000000000000000000000000000000000000000000081526004016108be90612637565b60405180910390fd5b6108cf6116af565b61090e576040517f08c379a0000000000000000000000000000000000000000000000000000000008152600401610905906124a4565b60405180910390fd5b7f225a6cefd1a2110d4d185f00c3b929827ae0cfbe563a7ab07b70fadba49d5afd6109376112b3565b60016040516109479291906124c4565b60405180910390a1565b60008060001b610968816109636112b3565b6112bb565b6000610973846117df565b9050806109b5576040517f08c379a00000000000000000000000000000000000000000000000000000000081526004016109ac906126a3565b60405180910390fd5b7fe49d90fcc9795e0dd6fbdd623aabe4e0552150ca8da2a8aa3cfb5b2377e43f3b6001546109e16112b3565b6040516109ef9291906126c3565b60405180910390a18092505050919050565b6000600660008373ffffffffffffffffffffffffffffffffffffffff1673ffffffffffffffffffffffffffffffffffffffff168152602001908152602001600020549050919050565b6007602052806000526040600020600091509050806000015490806001018054610a739061271b565b80601f0160208091040260200160405190810160405280929190818152602001828054610a9f9061271b565b8015610aec5780601f10610ac157610100808354040283529160200191610aec565b820191906000526020600020905b815481529060010190602001808311610acf57829003601f168201915b505050505090806002018054610b019061271b565b80601f0160208091040260200160405190810160405280929190818152602001828054610b2d9061271b565b8015610b7a5780601f10610b4f57610100808354040283529160200191610b7a565b820191906000526020600020905b815481529060010190602001808311610b5d57829003601f168201915b5050505050908060030154908060040160009054906101000a900460ff16908060040160019054906101000a900473ffffffffffffffffffffffffffffffffffffffff16908060050160009054906101000a900473ffffffffffffffffffffffffffffffffffffffff16905087565b60015481565b806000806002811115610c0557610c04612032565b5b6007600084815260200190815260200160002060040160009054906101000a900460ff166002811115610c3b57610c3a612032565b5b14610c4557600080fd5b600760008481526020019081526020016000206003015480341015610c6957600080fd5b6000610c7485610d2e565b905080610cb6576040517f08c379a0000000000000000000000000000000000000000000000000000000008152600401610cad90612799565b60405180910390fd5b5050505050565b600080600084815260200190815260200160002060000160008373ffffffffffffffffffffffffffffffffffffffff1673ffffffffffffffffffffffffffffffffffffffff16815260200190815260200160002060009054906101000a900460ff16905092915050565b6000801b81565b6000806007600084815260200190815260200160002060040160019054906101000a900473ffffffffffffffffffffffffffffffffffffffff1673ffffffffffffffffffffffffffffffffffffffff166007600085815260200190815260200160002060030154604051610da1906127ea565b60006040518083038185875af1925050503d8060008114610dde576040519150601f19603f3d011682016040523d82523d6000602084013e610de3565b606091505b5050905080610e27576040517f08c379a0000000000000000000000000000000000000000000000000000000008152600401610e1e90612871565b60405180910390fd5b610e2f6112b3565b6007600085815260200190815260200160002060050160006101000a81548173ffffffffffffffffffffffffffffffffffffffff021916908373ffffffffffffffffffffffffffffffffffffffff16021790555060016007600085815260200190815260200160002060040160006101000a81548160ff02191690836002811115610ebd57610ebc612032565b5b02179055506001915050919050565b600047905090565b6000801b610ee981610ee46112b3565b6112bb565b81600460008573ffffffffffffffffffffffffffffffffffffffff1673ffffffffffffffffffffffffffffffffffffffff16815260200190815260200160002060006101000a81548160ff0219169083151502179055507f8a4bd1c0bea5d8af99ab2fc908a1eb63305bca954da37148e503069e30c7910c610f696112b3565b8484604051610f7a93929190612891565b60405180910390a1505050565b8160016002811115610f9c57610f9b612032565b5b6007600083815260200190815260200160002060040160009054906101000a900460ff166002811115610fd257610fd1612032565b5b1480156110475750610fe26112b3565b73ffffffffffffffffffffffffffffffffffffffff166007600083815260200190815260200160002060050160009054906101000a900473ffffffffffffffffffffffffffffffffffffffff1673ffffffffffffffffffffffffffffffffffffffff16145b61105057600080fd5b81600560006007600087815260200190815260200160002060040160019054906101000a900473ffffffffffffffffffffffffffffffffffffffff1673ffffffffffffffffffffffffffffffffffffffff1673ffffffffffffffffffffffffffffffffffffffff168152602001908152602001600020600085815260200190815260200160002060006101000a81548160ff021916908360048111156110f9576110f8612032565b5b0217905550505050565b7fa95257aebefccffaada4758f028bce81ea992693be70592f620c4c9a0d9e715a81565b61113082610598565b6111418161113c6112b3565b6112bb565b61114b8383611438565b505050565b7fe27592a68a79c541972a95a186227e8435146610cb2d3eb8f8589c9a507d61b281565b60035481565b7fe27592a68a79c541972a95a186227e8435146610cb2d3eb8f8589c9a507d61b26111ac816111a76112b3565b6112bb565b6000806111ba86868661180f565b91509150816111fe576040517f08c379a00000000000000000000000000000000000000000000000000000000081526004016111f590612799565b60405180910390fd5b7fd66c734826045689f1426ace6e4118d2fe10a1326143e643dd84448e7250aeba81600061122a6112b3565b604051611239939291906128c8565b60405180910390a1505050505050565b60007f01ffc9a7000000000000000000000000000000000000000000000000000000007bffffffffffffffffffffffffffffffffffffffffffffffffffffffff1916827bffffffffffffffffffffffffffffffffffffffffffffffffffffffff1916149050919050565b600033905090565b6112c58282610cbd565b611354576112ea8173ffffffffffffffffffffffffffffffffffffffff1660146119e1565b6112f88360001c60206119e1565b6040516020016113099291906129d3565b6040516020818303038152906040526040517f08c379a000000000000000000000000000000000000000000000000000000000815260040161134b9190612a0d565b60405180910390fd5b5050565b6113628282610cbd565b61143457600160008084815260200190815260200160002060000160008373ffffffffffffffffffffffffffffffffffffffff1673ffffffffffffffffffffffffffffffffffffffff16815260200190815260200160002060006101000a81548160ff0219169083151502179055506113d96112b3565b73ffffffffffffffffffffffffffffffffffffffff168173ffffffffffffffffffffffffffffffffffffffff16837f2f8788117e7eff1d82e926ec794901d17c78024a50270940304540a733656f0d60405160405180910390a45b5050565b6114428282610cbd565b1561151557600080600084815260200190815260200160002060000160008373ffffffffffffffffffffffffffffffffffffffff1673ffffffffffffffffffffffffffffffffffffffff16815260200190815260200160002060006101000a81548160ff0219169083151502179055506114ba6112b3565b73ffffffffffffffffffffffffffffffffffffffff168173ffffffffffffffffffffffffffffffffffffffff16837ff6391f5c32d9c69d2a47ea670b442974b53935d1edc7fd64eb21e047a839171b60405160405180910390a45b5050565b600080600660006115286112b3565b73ffffffffffffffffffffffffffffffffffffffff1673ffffffffffffffffffffffffffffffffffffffff168152602001908152602001600020549050600061156f6112b3565b73ffffffffffffffffffffffffffffffffffffffff1682604051611592906127ea565b60006040518083038185875af1925050503d80600081146115cf576040519150601f19603f3d011682016040523d82523d6000602084013e6115d4565b606091505b5050905080611618576040517f08c379a000000000000000000000000000000000000000000000000000000000815260040161160f90612871565b60405180910390fd5b81600660006116256112b3565b73ffffffffffffffffffffffffffffffffffffffff1673ffffffffffffffffffffffffffffffffffffffff168152602001908152602001600020600082825461166e9190612a5e565b925050819055506116a67fe27592a68a79c541972a95a186227e8435146610cb2d3eb8f8589c9a507d61b26116a16112b3565b6105e0565b60019250505090565b6000803073ffffffffffffffffffffffffffffffffffffffff16346040516116d6906127ea565b60006040518083038185875af1925050503d8060008114611713576040519150601f19603f3d011682016040523d82523d6000602084013e611718565b606091505b505090508061175c576040517f08c379a000000000000000000000000000000000000000000000000000000000815260040161175390612b04565b60405180910390fd5b34600660006117696112b3565b73ffffffffffffffffffffffffffffffffffffffff1673ffffffffffffffffffffffffffffffffffffffff168152602001908152602001600020819055506117d87fe27592a68a79c541972a95a186227e8435146610cb2d3eb8f8589c9a507d61b26117d36112b3565b611c1d565b8091505090565b60006117e9611c2b565b600a6117f59190612c64565b826118009190612caf565b60018190555060019050919050565b6000806040518060e0016040528060035481526020018681526020018581526020018481526020016000600281111561184b5761184a612032565b5b81526020016118586112b3565b73ffffffffffffffffffffffffffffffffffffffff168152602001600073ffffffffffffffffffffffffffffffffffffffff168152506007600060035481526020019081526020016000206000820151816000015560208201518160010190805190602001906118c9929190611c42565b5060408201518160020190805190602001906118e6929190611c42565b506060820151816003015560808201518160040160006101000a81548160ff0219169083600281111561191c5761191b612032565b5b021790555060a08201518160040160016101000a81548173ffffffffffffffffffffffffffffffffffffffff021916908373ffffffffffffffffffffffffffffffffffffffff16021790555060c08201518160050160006101000a81548173ffffffffffffffffffffffffffffffffffffffff021916908373ffffffffffffffffffffffffffffffffffffffff16021790555090505060006003549050600360008154809291906119cc90612d09565b91905055506001819250925050935093915050565b6060600060028360026119f49190612caf565b6119fe9190612d52565b67ffffffffffffffff811115611a1757611a16612210565b5b6040519080825280601f01601f191660200182016040528015611a495781602001600182028036833780820191505090505b5090507f300000000000000000000000000000000000000000000000000000000000000081600081518110611a8157611a80612da8565b5b60200101907effffffffffffffffffffffffffffffffffffffffffffffffffffffffffffff1916908160001a9053507f780000000000000000000000000000000000000000000000000000000000000081600181518110611ae557611ae4612da8565b5b60200101907effffffffffffffffffffffffffffffffffffffffffffffffffffffffffffff1916908160001a90535060006001846002611b259190612caf565b611b2f9190612d52565b90505b6001811115611bcf577f3031323334353637383961626364656600000000000000000000000000000000600f861660108110611b7157611b70612da8565b5b1a60f81b828281518110611b8857611b87612da8565b5b60200101907effffffffffffffffffffffffffffffffffffffffffffffffffffffffffffff1916908160001a905350600485901c945080611bc890612dd7565b9050611b32565b5060008414611c13576040517f08c379a0000000000000000000000000000000000000000000000000000000008152600401611c0a90612e4d565b60405180910390fd5b8091505092915050565b611c278282611358565b5050565b6000600260009054906101000a900460ff16905090565b828054611c4e9061271b565b90600052602060002090601f016020900481019282611c705760008555611cb7565b82601f10611c8957805160ff1916838001178555611cb7565b82800160010185558215611cb7579182015b82811115611cb6578251825591602001919060010190611c9b565b5b509050611cc49190611cc8565b5090565b5b80821115611ce1576000816000905550600101611cc9565b5090565b6000604051905090565b600080fd5b600080fd5b60007fffffffff0000000000000000000000000000000000000000000000000000000082169050919050565b611d2e81611cf9565b8114611d3957600080fd5b50565b600081359050611d4b81611d25565b92915050565b600060208284031215611d6757611d66611cef565b5b6000611d7584828501611d3c565b91505092915050565b60008115159050919050565b611d9381611d7e565b82525050565b6000602082019050611dae6000830184611d8a565b92915050565b6000819050919050565b611dc781611db4565b8114611dd257600080fd5b50565b600081359050611de481611dbe565b92915050565b600060208284031215611e0057611dff611cef565b5b6000611e0e84828501611dd5565b91505092915050565b611e2081611db4565b82525050565b6000602082019050611e3b6000830184611e17565b92915050565b600073ffffffffffffffffffffffffffffffffffffffff82169050919050565b6000611e6c82611e41565b9050919050565b611e7c81611e61565b8114611e8757600080fd5b50565b600081359050611e9981611e73565b92915050565b60008060408385031215611eb657611eb5611cef565b5b6000611ec485828601611dd5565b9250506020611ed585828601611e8a565b9150509250929050565b6000819050919050565b611ef281611edf565b8114611efd57600080fd5b50565b600081359050611f0f81611ee9565b92915050565b600060208284031215611f2b57611f2a611cef565b5b6000611f3984828501611f00565b91505092915050565b600060208284031215611f5857611f57611cef565b5b6000611f6684828501611e8a565b91505092915050565b611f7881611edf565b82525050565b6000602082019050611f936000830184611f6f565b92915050565b600081519050919050565b600082825260208201905092915050565b60005b83811015611fd3578082015181840152602081019050611fb8565b83811115611fe2576000848401525b50505050565b6000601f19601f8301169050919050565b600061200482611f99565b61200e8185611fa4565b935061201e818560208601611fb5565b61202781611fe8565b840191505092915050565b7f4e487b7100000000000000000000000000000000000000000000000000000000600052602160045260246000fd5b6003811061207257612071612032565b5b50565b600081905061208382612061565b919050565b600061209382612075565b9050919050565b6120a381612088565b82525050565b6120b281611e61565b82525050565b600060e0820190506120cd600083018a611f6f565b81810360208301526120df8189611ff9565b905081810360408301526120f38188611ff9565b90506121026060830187611f6f565b61210f608083018661209a565b61211c60a08301856120a9565b61212960c08301846120a9565b98975050505050505050565b61213e81611d7e565b811461214957600080fd5b50565b60008135905061215b81612135565b92915050565b6000806040838503121561217857612177611cef565b5b600061218685828601611e8a565b92505060206121978582860161214c565b9150509250929050565b600581106121ae57600080fd5b50565b6000813590506121c0816121a1565b92915050565b600080604083850312156121dd576121dc611cef565b5b60006121eb85828601611f00565b92505060206121fc858286016121b1565b9150509250929050565b600080fd5b600080fd5b7f4e487b7100000000000000000000000000000000000000000000000000000000600052604160045260246000fd5b61224882611fe8565b810181811067ffffffffffffffff8211171561226757612266612210565b5b80604052505050565b600061227a611ce5565b9050612286828261223f565b919050565b600067ffffffffffffffff8211156122a6576122a5612210565b5b6122af82611fe8565b9050602081019050919050565b82818337600083830152505050565b60006122de6122d98461228b565b612270565b9050828152602081018484840111156122fa576122f961220b565b5b6123058482856122bc565b509392505050565b600082601f83011261232257612321612206565b5b81356123328482602086016122cb565b91505092915050565b60008060006060848603121561235457612353611cef565b5b600084013567ffffffffffffffff81111561237257612371611cf4565b5b61237e8682870161230d565b935050602084013567ffffffffffffffff81111561239f5761239e611cf4565b5b6123ab8682870161230d565b92505060406123bc86828701611f00565b9150509250925092565b7f416363657373436f6e74726f6c3a2063616e206f6e6c792072656e6f756e636560008201527f20726f6c657320666f722073656c660000000000000000000000000000000000602082015250565b6000612422602f83611fa4565b915061242d826123c6565b604082019050919050565b6000602082019050818103600083015261245181612415565b9050919050565b7f2000000000000000000000000000000000000000000000000000000000000000600082015250565b600061248e600183611fa4565b915061249982612458565b602082019050919050565b600060208201905081810360008301526124bd81612481565b9050919050565b60006040820190506124d960008301856120a9565b6124e66020830184611d8a565b9392505050565b7f56616c7565206973206e6f7420656e6f75676800000000000000000000000000600082015250565b6000612523601383611fa4565b915061252e826124ed565b602082019050919050565b6000602082019050818103600083015261255281612516565b9050919050565b7f54686973206163636f756e7420616c726561647920686173206120726f6c652060008201527f61737369676e6564000000000000000000000000000000000000000000000000602082015250565b60006125b5602883611fa4565b91506125c082612559565b604082019050919050565b600060208201905081810360008301526125e4816125a8565b9050919050565b7f54686973206163636f756e742069732062616e6e656400000000000000000000600082015250565b6000612621601683611fa4565b915061262c826125eb565b602082019050919050565b6000602082019050818103600083015261265081612614565b9050919050565b7f4572726f72200000000000000000000000000000000000000000000000000000600082015250565b600061268d600683611fa4565b915061269882612657565b602082019050919050565b600060208201905081810360008301526126bc81612680565b9050919050565b60006040820190506126d86000830185611f6f565b6126e560208301846120a9565b9392505050565b7f4e487b7100000000000000000000000000000000000000000000000000000000600052602260045260246000fd5b6000600282049050600182168061273357607f821691505b60208210811415612747576127466126ec565b5b50919050565b7f204552524f522000000000000000000000000000000000000000000000000000600082015250565b6000612783600783611fa4565b915061278e8261274d565b602082019050919050565b600060208201905081810360008301526127b281612776565b9050919050565b600081905092915050565b50565b60006127d46000836127b9565b91506127df826127c4565b600082019050919050565b60006127f5826127c7565b9150819050919050565b7f556e61626c6520746f2073656e642076616c75652c20726563697069656e742060008201527f6d61792068617665207265766572746564000000000000000000000000000000602082015250565b600061285b603183611fa4565b9150612866826127ff565b604082019050919050565b6000602082019050818103600083015261288a8161284e565b9050919050565b60006060820190506128a660008301866120a9565b6128b360208301856120a9565b6128c06040830184611d8a565b949350505050565b60006060820190506128dd6000830186611f6f565b6128ea602083018561209a565b6128f760408301846120a9565b949350505050565b600081905092915050565b7f416363657373436f6e74726f6c3a206163636f756e7420000000000000000000600082015250565b60006129406017836128ff565b915061294b8261290a565b601782019050919050565b600061296182611f99565b61296b81856128ff565b935061297b818560208601611fb5565b80840191505092915050565b7f206973206d697373696e6720726f6c6520000000000000000000000000000000600082015250565b60006129bd6011836128ff565b91506129c882612987565b601182019050919050565b60006129de82612933565b91506129ea8285612956565b91506129f5826129b0565b9150612a018284612956565b91508190509392505050565b60006020820190508181036000830152612a278184611ff9565b905092915050565b7f4e487b7100000000000000000000000000000000000000000000000000000000600052601160045260246000fd5b6000612a6982611edf565b9150612a7483611edf565b925082821015612a8757612a86612a2f565b5b828203905092915050565b7f756e61626c6520746f2073656e642076616c75652c20726563697069656e742060008201527f6d61792068617665207265766572746564000000000000000000000000000000602082015250565b6000612aee603183611fa4565b9150612af982612a92565b604082019050919050565b60006020820190508181036000830152612b1d81612ae1565b9050919050565b60008160011c9050919050565b6000808291508390505b6001851115612b7b57808604811115612b5757612b56612a2f565b5b6001851615612b665780820291505b8081029050612b7485612b24565b9450612b3b565b94509492505050565b600082612b945760019050612c50565b81612ba25760009050612c50565b8160018114612bb85760028114612bc257612bf1565b6001915050612c50565b60ff841115612bd457612bd3612a2f565b5b8360020a915084821115612beb57612bea612a2f565b5b50612c50565b5060208310610133831016604e8410600b8410161715612c265782820a905083811115612c2157612c20612a2f565b5b612c50565b612c338484846001612b31565b92509050818404811115612c4a57612c49612a2f565b5b81810290505b9392505050565b600060ff82169050919050565b6000612c6f82611edf565b9150612c7a83612c57565b9250612ca77fffffffffffffffffffffffffffffffffffffffffffffffffffffffffffffffff8484612b84565b905092915050565b6000612cba82611edf565b9150612cc583611edf565b9250817fffffffffffffffffffffffffffffffffffffffffffffffffffffffffffffffff0483118215151615612cfe57612cfd612a2f565b5b828202905092915050565b6000612d1482611edf565b91507fffffffffffffffffffffffffffffffffffffffffffffffffffffffffffffffff821415612d4757612d46612a2f565b5b600182019050919050565b6000612d5d82611edf565b9150612d6883611edf565b9250827fffffffffffffffffffffffffffffffffffffffffffffffffffffffffffffffff03821115612d9d57612d9c612a2f565b5b828201905092915050565b7f4e487b7100000000000000000000000000000000000000000000000000000000600052603260045260246000fd5b6000612de282611edf565b91506000821415612df657612df5612a2f565b5b600182039050919050565b7f537472696e67733a20686578206c656e67746820696e73756666696369656e74600082015250565b6000612e37602083611fa4565b9150612e4282612e01565b602082019050919050565b60006020820190508181036000830152612e6681612e2a565b905091905056fea2646970667358221220948325f22c707d265f04ddbfe1cfcd87fde740dfdf6283c5e205c644d3f9f0d564736f6c634300080a0033",
  "immutableReferences": {},
  "source": "// SPDX-License-Identifier: MIT\npragma solidity 0.8.10;\n\n/// @title  AccessControl \n/// @author OpenZeppelin\nimport \"@openzeppelin/contracts/access/AccessControl.sol\";\n\n/// @title  Decentralized business layer \n/// @author Roberto Garcia\n/// @notice It is intended to be a standard or layer \n///         for the development of purchase and sale projects\n///         applicable to any business model. \n/// @dev    This contract is in its first phase of development.\n/// @custom:experimental This is an experimental contract.\ncontract DecentralizedBusinesses is AccessControl {\n    \n    /// @dev define a public role type\n    bytes32 public constant SELLER_ROLE = keccak256(\"SELLER\");\n    /// @dev define a public role type \n    bytes32 public constant VALIDATOR_ROLE = keccak256(\"VALIDATOR\");\n\n    enum Stars { One, Two, Three, Four,Five }\n    enum State { OnSale, Sold, Qualified } \n    /// @notice is the collateral to become a seller\n    /// @dev  in the future this variable will be modified only by consensus.\n    uint256 public quoteForSeller;\n\n    /// @notice variable to define the number of decimal places\n    uint8 internal decimal;\n\n    /// @notice incremental for products\n    uint256 public productCount;\n    \n\n    /// @notice Declares a data type to be used to Product.\n    /// @dev In this case it is important to register the product's own data in the blockchain.\n    struct Product {\n        uint256 id;\n        string name;\n        string description;\n        uint256 price;\n        State state;\n        address seller;\n        address buyer;\n    }\n    /// @notice Relationship of accounts that have been banned from the platform\n    /// @dev In the future this relationship should only be modified by consensus.\n    mapping(address => bool) private blackList;\n\n    /// @notice Relationship of accounts that have registered as sellers\n    mapping(address => mapping(uint => Stars)) private sellers;\n\n    /// @notice Relationship of accounts and amounts \n    mapping(address => uint256) private balances;\n\n    /// @notice Relationship of accounts and amounts \n    mapping(uint256 => Product) public products;\n\n    /// @notice Emitted when a change is made to the quota.\n    /// @param newQuote new declared quote\n    /// @param account account modifying the quota\n    event LogChangeQuote(uint256 newQuote, address account);\n\n    /// @notice Emitted when a seller is registered or deregistered.\n    /// @param seller account that change .\n    /// @param status account status.\n    /// @dev   true: register, false: unregister\n    event LogRegisteredSeller(address seller, bool status);\n    \n    /// @notice Emitted when an account is banned or remove ban\n    /// @param validator account that made the change.\n    /// @param account account affected.\n    /// @param state account status.\n    /// @dev false: remove ban,  true: banned\n    event LogChangeBlackList(address validator, address account, bool state);\n\n    /// @notice Emitted when a product is registered\n    /// @param id producto id.\n    /// @param state producto state.\n    /// @param seller seller of product\n    event LogProduct(uint256 id, State state, address seller);\n\n    /// @notice validates that the value sent is sufficient to cover the quote\n    modifier validQuote() {\n        require(msg.value >= quoteForSeller, \"Value is not enough\");\n        _;\n    }\n\n    /// @notice validates that the account is not assigned Administrator, Validator or Vendor role\n    modifier validSeller() {\n        require(\n            !hasRole(DEFAULT_ADMIN_ROLE, _msgSender()) &&\n                !hasRole(VALIDATOR_ROLE, _msgSender()) &&\n                !hasRole(SELLER_ROLE, _msgSender()),\n            \"This account already has a role assigned\"\n        );\n        _;\n    }\n    /// @notice validates that the account is not banned\n    modifier validBlackList() {\n        require(blackList[_msgSender()] == false, \"This account is banned\");\n        _;\n    }\n    /// @notice validate product state\n    /// @param id product id\n    /// @param state product id\n    modifier validateState(uint id, State state){\n        require(products[id].state == state);\n        _;\n    } \n    /// @notice validate product state\n    /// @param value product value\n    modifier valueEnough(uint value){\n        require(msg.value >= value);\n        _;\n    } \n    /// @notice validate for qualify seller and buyer\n    /// @param id product value\n    modifier qualifySeller(uint id){\n        require( products[id].state == State.Sold \n                && products[id].buyer == _msgSender() );\n        _;\n    } \n    /// @notice Initializes the contract by defining the administrator,\n    ///         the number of decimal places and the quota for vendors.\n    /// @param quoteSeller quota for sellers roles\n    /// @dev I prefer to initialize my counter to one `productCount ++`\n    constructor(uint256 quoteSeller) {\n        \n        productCount++;\n        _setupRole(DEFAULT_ADMIN_ROLE, _msgSender());\n        decimal = 18;\n        quoteForSeller = quoteSeller * 10 ** decimals();\n    }\n\n    receive() external payable {}\n\n    /// @notice to know the balance of the contract\n    /// @return balance of the contract\n    function balance() public view returns (uint256) {\n        return address(this).balance;\n    }\n    /// @notice to know the balance of the contract\n    /// @param account of the contract\n    /// @return balance of the account\n    function balanceOf(address account) public view returns (uint256) {\n        return balances[account];\n    }\n\n    /// @notice change the quote\n    /// @param newQuote the value of the new quote\n    /// @dev in the future this function will be called only by consensus.\n    function setQuote(uint256 newQuote)\n        public\n        onlyRole(DEFAULT_ADMIN_ROLE)\n        returns (bool)\n    {\n        (bool success) = _setQuote(newQuote);\n        require(success, \"Error \" ); \n        emit LogChangeQuote(quoteForSeller, _msgSender());\n        return success;\n    \n    }\n    /// @notice change the quote\n    /// @param newQuote the value of the new quote\n    /// @dev in the future this function will be called only by consensus.\n    function _setQuote(uint256 newQuote) private returns (bool) {\n        quoteForSeller = newQuote * 10 ** decimals();\n        return true;\n    }\n    /// @notice consult the number of decimal places set\n    /// @return number of decimals placde defined\n    function decimals() internal view returns (uint8) {\n        return decimal;\n    }\n    /// @notice add new seller\n    function registerSeller()\n        public\n        payable\n        validQuote\n        validSeller\n        validBlackList\n    {\n        require(_registerSeller(), \" \");\n        emit LogRegisteredSeller(_msgSender(), true);\n    }\n    /// @notice add new seller\n    /// @return true: account is register, false: if the account could not be register\n    function _registerSeller() internal returns (bool) {\n\n        (bool success, ) = address(this).call{value: msg.value}(\"\");\n        require(success, \"unable to send value, recipient may have reverted\");\n        balances[_msgSender()] = msg.value;\n        _setupRole(SELLER_ROLE, _msgSender());\n\n        return success;\n    }\n    /// @notice remove seller\n    function unregisterSeller() public onlyRole(SELLER_ROLE) {\n        require(_unregisterSeller(), \" \");\n        emit LogRegisteredSeller(_msgSender(), false);\n    }\n\n    /// @notice add new seller\n    /// @return true: if account is unregister\n    function _unregisterSeller() internal returns (bool) {\n\n        uint value = balances[_msgSender()];\n\n        (bool success, ) = _msgSender().call{ value: value }(\"\");\n        require(success, \"Unable to send value, recipient may have reverted\");\n        balances[_msgSender()] -= value;\n        renounceRole(SELLER_ROLE, _msgSender());\n\n        return true;\n    }\n    /// @notice manages the list of banned accounts\n    /// @param account account address  \n    /// @param state  true: baned, false: not banned\n    function changeBlackList(address account, bool state)\n        public\n        onlyRole(DEFAULT_ADMIN_ROLE)\n    {\n        blackList[account] = state;\n        emit LogChangeBlackList(_msgSender(), account, state);\n    }\n    /// @notice add new product\n    /// @param name product name  \n    /// @param description  product description\n    /// @param price product price\n    function addProduct(string memory name, string memory description, uint256 price) \n        public \n        onlyRole(SELLER_ROLE)\n    {\n        (bool success, uint id) = _addProduct(name, description, price);\n        require(success, \" ERROR \");\n        emit LogProduct(id, State.OnSale, _msgSender());\n    }\n    /// @notice add new product\n    /// @param _name product name  \n    /// @param _description  product description\n    /// @param _price product price\n    /// @return true: added, false: not added \n    function _addProduct(string memory _name, string memory _description, uint256 _price) \n    internal\n    returns(bool, uint)\n    {\n        products[productCount] = Product({\n            id: productCount,\n            name: _name,\n            description: _description,\n            price: _price,\n            state: State.OnSale,\n            seller: payable(_msgSender()),\n            buyer: payable(address(0))\n        });\n        uint id = productCount;\n        productCount ++;\n\n        return (true, id);\n    }\n    /// @notice buy product\n    /// @param id product id   \n    function buyProduct(uint id) \n        public\n        payable\n        validateState(id, State.OnSale) \n        valueEnough(products[id].price)\n    {\n        (bool success) = _buyProduct(id);\n        require(success,\" ERROR \");\n\n    }\n    /// @notice buy product\n    /// @param _id product id \n    function _buyProduct(uint _id)\n        public\n        payable\n        returns (bool)\n    { \n        (bool success, ) =  payable(products[_id].seller).call{ value: products[_id].price }(\"\");\n        require(success, \"Unable to send value, recipient may have reverted\");\n        products[_id].buyer = _msgSender();\n        products[_id].state = State.Sold;\n        return true;\n    }\n\n    function qualify(uint id, Stars rating) \n        public \n        qualifySeller(id)\n    {\n        sellers[products[id].seller][id] = rating;\n    }\n\n}",
  "sourcePath": "/Users/jrgarciasa/Repositories/blockchain-developer-bootcamp-final-project/contracts/DecentralizedBusinesses.sol",
  "compiler": {
    "name": "solc",
    "version": "0.8.10+commit.fc410830.Emscripten.clang"
  },
  "schemaVersion": "3.4.3",
  "updatedAt": "2021-11-30T20:06:44.479Z",
  "networkType": "ethereum",
  "devdoc": {
    "author": "Roberto Garcia",
    "custom:experimental": "This is an experimental contract.",
    "details": "This contract is in its first phase of development.",
    "events": {
      "LogChangeBlackList(address,address,bool)": {
        "details": "false: remove ban,  true: banned",
        "params": {
          "account": "account affected.",
          "state": "account status.",
          "validator": "account that made the change."
        }
      },
      "LogChangeQuote(uint256,address)": {
        "params": {
          "account": "account modifying the quota",
          "newQuote": "new declared quote"
        }
      },
      "LogProduct(uint256,uint8,address)": {
        "params": {
          "id": "producto id.",
          "seller": "seller of product",
          "state": "producto state."
        }
      },
      "LogRegisteredSeller(address,bool)": {
        "details": "true: register, false: unregister",
        "params": {
          "seller": "account that change .",
          "status": "account status."
        }
      }
    },
    "kind": "dev",
    "methods": {
      "_buyProduct(uint256)": {
        "params": {
          "_id": "product id "
        }
      },
      "addProduct(string,string,uint256)": {
        "params": {
          "description": "product description",
          "name": "product name  ",
          "price": "product price"
        }
      },
      "balance()": {
        "returns": {
          "_0": "balance of the contract"
        }
      },
      "balanceOf(address)": {
        "params": {
          "account": "of the contract"
        },
        "returns": {
          "_0": "balance of the account"
        }
      },
      "buyProduct(uint256)": {
        "params": {
          "id": "product id   "
        }
      },
      "changeBlackList(address,bool)": {
        "params": {
          "account": "account address  ",
          "state": "true: baned, false: not banned"
        }
      },
      "constructor": {
        "details": "I prefer to initialize my counter to one `productCount ++`",
        "params": {
          "quoteSeller": "quota for sellers roles"
        }
      },
      "getRoleAdmin(bytes32)": {
        "details": "Returns the admin role that controls `role`. See {grantRole} and {revokeRole}. To change a role's admin, use {_setRoleAdmin}."
      },
      "grantRole(bytes32,address)": {
        "details": "Grants `role` to `account`. If `account` had not been already granted `role`, emits a {RoleGranted} event. Requirements: - the caller must have ``role``'s admin role."
      },
      "hasRole(bytes32,address)": {
        "details": "Returns `true` if `account` has been granted `role`."
      },
      "renounceRole(bytes32,address)": {
        "details": "Revokes `role` from the calling account. Roles are often managed via {grantRole} and {revokeRole}: this function's purpose is to provide a mechanism for accounts to lose their privileges if they are compromised (such as when a trusted device is misplaced). If the calling account had been granted `role`, emits a {RoleRevoked} event. Requirements: - the caller must be `account`."
      },
      "revokeRole(bytes32,address)": {
        "details": "Revokes `role` from `account`. If `account` had been granted `role`, emits a {RoleRevoked} event. Requirements: - the caller must have ``role``'s admin role."
      },
      "setQuote(uint256)": {
        "details": "in the future this function will be called only by consensus.",
        "params": {
          "newQuote": "the value of the new quote"
        }
      },
      "supportsInterface(bytes4)": {
        "details": "See {IERC165-supportsInterface}."
      }
    },
    "stateVariables": {
      "SELLER_ROLE": {
        "details": "define a public role type"
      },
      "VALIDATOR_ROLE": {
        "details": "define a public role type "
      },
      "blackList": {
        "details": "In the future this relationship should only be modified by consensus."
      },
      "quoteForSeller": {
        "details": "in the future this variable will be modified only by consensus."
      }
    },
    "title": "Decentralized business layer ",
    "version": 1
  },
  "userdoc": {
    "events": {
      "LogChangeBlackList(address,address,bool)": {
        "notice": "Emitted when an account is banned or remove ban"
      },
      "LogChangeQuote(uint256,address)": {
        "notice": "Emitted when a change is made to the quota."
      },
      "LogProduct(uint256,uint8,address)": {
        "notice": "Emitted when a product is registered"
      },
      "LogRegisteredSeller(address,bool)": {
        "notice": "Emitted when a seller is registered or deregistered."
      }
    },
    "kind": "user",
    "methods": {
      "_buyProduct(uint256)": {
        "notice": "buy product"
      },
      "addProduct(string,string,uint256)": {
        "notice": "add new product"
      },
      "balance()": {
        "notice": "to know the balance of the contract"
      },
      "balanceOf(address)": {
        "notice": "to know the balance of the contract"
      },
      "buyProduct(uint256)": {
        "notice": "buy product"
      },
      "changeBlackList(address,bool)": {
        "notice": "manages the list of banned accounts"
      },
      "constructor": {
        "notice": "Initializes the contract by defining the administrator,         the number of decimal places and the quota for vendors."
      },
      "productCount()": {
        "notice": "incremental for products"
      },
      "products(uint256)": {
        "notice": "Relationship of accounts and amounts "
      },
      "quoteForSeller()": {
        "notice": "is the collateral to become a seller"
      },
      "registerSeller()": {
        "notice": "add new seller"
      },
      "setQuote(uint256)": {
        "notice": "change the quote"
      },
      "unregisterSeller()": {
        "notice": "remove seller"
      }
    },
    "notice": "It is intended to be a standard or layer          for the development of purchase and sale projects         applicable to any business model. ",
    "version": 1
  }
}